:020000040800F2
:10000000800C002019050008710500087105000822
:100010007105000871050008710500080000000066
:100020000000000000000000000000007105000852
:100030007105000800000000710500087105000846
:1000400071050008710500087105000871050008B8
:1000500071050008710500087105000871050008A8
:100060007105000871050008710500087105000898
:100070007105000871050008710500087105000888
:100080007105000871050008710500087105000878
:100090007105000871050008710500087105000868
:1000A0007105000871050008710500087105000858
:1000B0007105000871050008E508000871050008D1
:1000C0007105000871050008710500087105000838
:1000D000710500087105000871050008CD070008CA
:1000E0007105000871050008710500087105000818
:1000F0007105000871050008710500087105000808
:1001000071050008710500087105000871050008F7
:1001100071050008710500087105000871050008E7
:1001200071050008710500087105000871050008D7
:1001300071050008710500087105000871050008C7
:1001400071050008710500087105000871050008B7
:1001500071050008710500087105000871050008A7
:100160007105000871050008710500087105000897
:100170007105000871050008710500087105000887
:10018000710500087105000880B58AB000AF78607D
:10019000396000237B6200233B620023FB61002364
:1001A000BB617B681B8A9BB27B627B6A23F44053F2
:1001B0007B623B68DB881A467B6A13437B627B6AFF
:1001C0009AB27B681A827B689B899BB27B627B6A4E
:1001D00023F4B05323F00C037B623B689A883B689E
:1001E0001B8913439AB23B685B8913439BB21A463F
:1001F0007B6A13437B627B6A9AB27B689A817B68D5
:100200009B8A9BB27B627B6A23F440737B623B6870
:100210009B891A467B6A13437B627B6A9AB27B682E
:100220009A8207F10803184600F0AEFC7B68314A59
:10023000934203D07B68304A934202D17B693B6290
:1002400001E03B693B627B689B899BB29BB21BB21E
:10025000002B0CDA3A6A13469B0013449A001A44A6
:100260003B681B685B00B2FBF3F3FB610BE03A6A8F
:1002700013469B0013449A001A443B681B689B007A
:10028000B2FBF3F3FB61FB691C4AA2FB03235B098E
:100290001B017B627B6A1B09642202FB03F3FA6980
:1002A000D31ABB617B689B899BB29BB21BB2002BAC
:1002B0000CDABB69DB003233104AA2FB03235B0973
:1002C00003F007037A6A13437B620BE0BB691B01EF
:1002D00032330A4AA2FB03235B0903F00F037A6A55
:1002E00013437B627B6A9AB27B681A812837BD46CA
:1002F00080BD00BF00100140001401401F85EB517C
:1003000080B483B000AF78600B46FB70FB78002BA5
:1003100008D07B689B899BB243F400539AB27B68F8
:100320009A8107E07B689B899BB223F400539AB2C1
:100330007B689A810C37BD465DF8047B704700BF2F
:1003400080B483B000AF78607B689B889BB2C3F3B6
:1003500008039BB218460C37BD465DF8047B704716
:1003600080B487B000AF78600B467B8013467B700B
:1003700000233B610023FB600023BB6000237B6103
:100380007B687B617B88DBB25B09DBB23B617B888E
:1003900003F01F03FB60FB68012202FA03F3BB605A
:1003A0003B69012B03D17B690C337B6109E03B691D
:1003B000022B03D17B6910337B6102E07B6914332C
:1003C0007B617B78002B06D07B697A691168BA68FB
:1003D0000A431A6006E07B697A691168BA68D243F9
:1003E0000A401A601C37BD465DF8047B704700BFA9
:1003F00080B485B000AF78600B467B800023FB7330
:100400007B681B889AB27B8813409BB2002B02D07A
:100410000123FB7301E00023FB73FB7B18461437B9
:10042000BD465DF8047B704780B487B000AF78604C
:100430000B467B800023FB6000237B610023BB60B5
:100440000023FB747B88DBB25B09DBB2BB607B887B
:1004500003F01F037B617B69012202FA03F37B61D6
:10046000BB68012B07D17B689B899BB21A467B69CD
:1004700013407B6111E0BB68022B07D17B681B8AAC
:100480009BB21A467B6913407B6106E07B689B8ABE
:100490009BB21A467B6913407B617B881B0A9BB227
:1004A000FB60FB68012202FA03F3FB607B681B8898
:1004B0009BB21A46FB681340FB607B69002B05D09A
:1004C000FB68002B02D00123FB7401E00023FB74C6
:1004D000FB7C18461C37BD465DF8047B704700BFA7
:1004E00080B485B000AF78600B467B800023FB8131
:1004F0000023BB817B881B0AFB81FB89012202FA56
:1005000003F3BB81BB89DB439AB27B681A80143743
:10051000BD465DF8047B704780B582B000AF0F4BDD
:100520007B600F4B3B6007E03B681A1D3A607A68BE
:10053000111D796012681A603B680A4A9342F3D32E
:1005400009480A494FF000028842B8BF40F8042B1E
:10055000FADB00F001FA0837BD4680BDE42600084A
:10056000000000205C0400205C04002080040020C7
:1005700080B400AFFEE700BF80B483B000AF034695
:10058000FB71084997F907305B09FA7902F01F02FD
:10059000012000FA02F241F823200C37BD465DF835
:1005A000047B704700E100E080B582B000AF786066
:1005B00078684FF0000101F02BFF0346002B03D0B9
:1005C0007B6883F0004300E07B6818460837BD462F
:1005D00080BD00BF90B583B000AF786039607868A7
:1005E000396801F06FFC03461C467868FFF7DCFFB2
:1005F00003461846396801F06DFD0346204619464A
:1006000001F05EFC034618460C37BD4690BD00BFA6
:1006100090B585B000AFC7E90201C7E90023D7E96B
:10062000020101F0F9FB0446D7E9000101F0F4FBF7
:10063000034620461946FFF7CDFF02465C4B1A6081
:10064000D7E9020101F0E8FB0446D7E9000101F017
:10065000E3FB034683F0004320461946FFF7BAFF49
:100660000246544B1A60524B1B681846FFF79CFF1A
:1006700003461846504901F02DFD03461A464F4BDC
:100680001A604C4B1B681846FFF78EFF034618464E
:10069000494901F01FFD03461A46494B1A60474B72
:1006A0001B681846444901F0D1FE0346002B02D0D6
:1006B000424B414A1A60424B1B6818463E4901F0C2
:1006C000C5FE0346002B02D03D4B3B4A1A604FF05B
:1006D00080443A4B1B68184601F0C2FE0346636330
:1006E0004FF08044364B1B68184601F0B9FE0346B4
:1006F000A3632F4B1A68334B1B681046194601F051
:10070000A5FE0346002B08D02F48042100F0B0FBC3
:100710002D48082100F0BAFB19E02A4B1B6883F032
:100720000042234B1B681046194601F08FFE03461A
:10073000002B08D02448082100F09AFB224804210D
:1007400000F0A4FB03E020480C2100F09FFB194BB4
:100750001A681C4B1B681046194601F077FE0346C9
:10076000002B08D01848102100F082FB16482021E9
:1007700000F08CFB19E0134B1B6883F000420D4B1B
:100780001B681046194601F061FE0346002B08D095
:100790000D48202100F06CFB0B48102100F076FB87
:1007A00003E00948302100F071FB1437BD4690BDCD
:1007B0005C04002060040020004083456C0400209D
:1007C0007C040020000000200000024090B587B0AB
:1007D00000AF3D4840F22551FFF726FE0346002BAF
:1007E00013D000BF38482021FFF702FE0346002B3C
:1007F000F8D0364B1C68631C344A13603248FFF74C
:100800009FFD0346DAB2324B1A55304B1B68062B5C
:1008100052D12F4B1B783B712D4B5B787B712C4B4E
:100820009B78BB712A4BDB783B70294B1B797B7023
:10083000274B5B79BB703B1D184601F031FE024629
:10084000244B1A603B46184601F02AFE0246224B12
:100850001A60204B1B687F3B184601F065F8024682
:100860000B46104619464FF000021C4B01F0ECF904
:1008700002460B46C7E90423174B1B687F3B18460B
:1008800001F052F802460B46104619464FF000029E
:10089000124B01F0D9F902460B46C7E90223D7E90A
:1008A0000401D7E90223FFF7B3FE084B00221A60C8
:1008B0000B48002100F02CFD034840F22551FFF7C2
:1008C0000FFE1C37BD4690BD004800406404002068
:1008D00074040020700400206804002000006040C0
:1008E0000008004080B500AF1648012100F090FEDE
:1008F0000346002B24D0144B4FF000021A60134B18
:100900004FF000021A604FF0804300225A634FF00C
:10091000804300229A630E483C2100F0B7FA0D4B49
:1009200000221A604FF000004FF000014FF000026B
:100930004FF00003FFF76CFE0248012100F092FE29
:1009400080BD00BF000800405C040020600400205F
:10095000000002406404002080B590B000AF00F0B9
:10096000EBFA00F015FB0120012100F0B7F904209B
:10097000012100F0B3F90820012100F0AFF94FF494
:100980008020012100F0C8F90120012100F0C4F904
:100990000420012100F0C0F977480A21072200F065
:1009A00083FA002387F83E30012387F83F30022383
:1009B00087F83C304FF48063BB63022387F83D30F7
:1009C00007F138036C48194600F0C4F96A480B2156
:1009D000072200F069FA022387F83C304FF40063E5
:1009E000BB6307F138036448194600F0B3F90323E9
:1009F000BB63022387F83C30002387F83E30032393
:100A000087F83D30002387F83F3007F138035B4813
:100A1000194600F09FF93C23BB63012387F83C3063
:100A2000002387F83E30032387F83D30022387F800
:100A30003F3007F138035148194600F08BF94FF465
:100A40001653BB620023BB850023FB8500233B8636
:100A50000023BB860C237B8607F1280348481946F0
:100A6000FFF792FB46480121FFF74AFC444840F259
:100A700025510122FFF774FC272387F82430002337
:100A800087F82530002387F82630012387F82730A0
:100A900007F12403184600F071FB2720FFF76CFDD7
:100AA0004AF21043FB614FF4FA633B8300233B841B
:100AB00000237B8307F118033248194600F0BEFB80
:100AC0001E2387F82430002387F82530002387F879
:100AD0002630012387F8273007F12403184600F059
:100AE0004DFB2848012100F0BDFD264801210122CF
:100AF00000F06AFD2348012100F00AFC41F268037E
:100B0000FB61C8233B8300233B8400237B8307F1E5
:100B100018034FF08040194600F090FB6023BB8023
:100B20000123FB800023FB6000233B82134800214C
:100B3000012200F0B9F93B1D4FF08040194600F04A
:100B400007FC4FF08040082100F004FD0B48012114
:100B5000012200F0A9F93B1D4FF08040194600F03A
:100B600071FC4FF08040082100F010FD4FF08040F4
:100B7000012100F0CDFBFEE700080240000002402A
:100B8000004800400008004080B489B000AF7860A1
:100B90000023BB6100237B610023FB6102233B61D7
:100BA0000023FB600223BB60484B9B6803F00C03EF
:100BB000BB61BB69042B07D0082B09D0002B3FD1A8
:100BC0007B68434A1A603FE07B68424A1A603BE018
:100BD0003E4B5B6803F480039B0DFB603B4B5B6803
:100BE00003F03F03BB60FB68002B0DD0394ABB68A4
:100BF000B2FBF3F2354B596847F6C0730B409B09C3
:100C000003FB02F3FB610CE0314ABB68B2FBF3F279
:100C10002E4B596847F6C0730B409B0903FB02F348
:100C2000FB612A4B5B6803F440331B0C01335B0010
:100C30003B61FA693B69B2FBF3F27B681A6003E03F
:100C40007B68234A1A6000BF204B9B6803F0F003C7
:100C5000BB61BB691B09BB611F4ABB6913441B789D
:100C6000DBB27B617B681A687B69DA407B685A601B
:100C7000164B9B6803F4E053BB61BB699B0ABB61E5
:100C8000154ABB6913441B78DBB27B617B685A68E9
:100C90007B69DA407B689A600C4B9B6803F4604385
:100CA000BB61BB695B0BBB610B4ABB6913441B781F
:100CB000DBB27B617B685A687B69DA407B68DA600B
:100CC0002437BD465DF8047B704700BF0038024002
:100CD0000024F40000127A000400002080B483B0E5
:100CE00000AF78600B46FB70FB78002B06D00949FB
:100CF000084B1A6B7B6813430B6306E00549054BF1
:100D00001A6B7B68DB4313400B630C37BD465DF801
:100D1000047B70470038024080B483B000AF786035
:100D20000B46FB70FB78002B06D00949084B1A6C68
:100D30007B6813430B6406E00549054B1A6C7B681E
:100D4000DB4313400B640C37BD465DF8047B7047F2
:100D50000038024080B487B000AF7860396000236B
:100D60007B6100233B610023FB6000237B6176E015
:100D70007B69012202FA03F33B613B681A683B6915
:100D80001340FB60FA683B699A4265D17B681A6838
:100D90007B695B00194603238B40DB431A407B6869
:100DA0001A607B681A683B681B7919467B695B008F
:100DB00001FA03F31A437B681A603B681B79012B25
:100DC00003D03B681B79022B2ED17B689A687B6924
:100DD0005B00194603238B40DB431A407B689A6013
:100DE0007B689A683B685B7919467B695B0001FA0E
:100DF00003F31A437B689A607B685A687B699BB2ED
:100E0000194601238B40DB431A407B685A607B689C
:100E10005B683A68927911467A6992B201FA02F2F5
:100E200092B21A437B685A607B68DA687B699BB22E
:100E30005B00032101FA03F3DB431A407B68DA60AD
:100E40007B68DA683B68DB7919467B695B0001FAED
:100E500003F31A437B68DA607B6901337B617B694A
:100E60000F2B85D91C37BD465DF8047B704700BF4A
:100E700080B483B000AF78600B467B807B687A8853
:100E80001A830C37BD465DF8047B704780B483B08D
:100E900000AF78600B467B807B687A885A830C377A
:100EA000BD465DF8047B704780B485B000AF7860C4
:100EB0000B467B8013467B700023FB600023BB60E6
:100EC0007B787A8802F0070292009340FB607B886F
:100ED000DB089BB218467B88DB089BB21A467B680E
:100EE000083253F822207B8803F007039B00194641
:100EF0000F238B40DB4302EA03017B6800F1080209
:100F000043F822107B88DB089BB21A467B680832C4
:100F100053F82220FB681343BB607B88DB089BB23D
:100F20001A467B680832B96843F822101437BD4668
:100F30005DF8047B704700BF80B500AF114A114BCC
:100F40001B6843F0010313600E4B00229A600D4AA8
:100F50000C4B1B6823F0847323F480331360094B1C
:100F6000094A5A60074A074B1B6823F48023136021
:100F7000044B0022DA6000F087F8044B4FF0006267
:100F80009A6080BD003802401030002400ED00E07F
:100F900080B487B000AF00233B6100237B61022354
:100FA000FB600023BB6002237B60324B9B6803F035
:100FB0000C033B613B69042B07D0082B09D0002BA5
:100FC0003FD12D4B2D4A1A603FE02B4B2C4A1A6023
:100FD0003BE0284B5B6803F480039B0DBB60254B13
:100FE0005B6803F03F037B60BB68002B0DD0244A95
:100FF0007B68B2FBF3F21F4B596847F6C0730B4096
:101000009B0903FB02F37B610CE01C4A7B68B2FB8B
:10101000F3F2184B596847F6C0730B409B0903FB6A
:1010200002F37B61134B5B6803F440331B0C013309
:101030005B00FB607A69FB68B2FBF3F30E4A136056
:1010400003E00D4B0D4A1A6000BF0A4B9B6803F08A
:10105000F0031B090B4AD35CDBB23B61064B1A68F9
:101060003B6922FA03F3044A13601C37BD465DF85E
:10107000047B704700380240140000200024F40074
:1010800000127A001800002080B483B000AF002363
:101090007B6000233B60354A344B1B6843F480334C
:1010A0001360324B1B6803F400333B607B680133F1
:1010B0007B603B68002B03D17B68B3F5A06FF0D158
:1010C0002A4B1B6803F40033002B02D001233B6042
:1010D00001E000233B603B68012B42D1234A234BB4
:1010E0001B6C43F080531364214A214B1B6843F46B
:1010F000804313601D4A1D4B9B6893601B4A1B4B2A
:101100009B6843F400439360184A184B9B6843F470
:10111000A0539360154B174A5A60144A134B1B682F
:1011200043F08073136000BF104B1B6803F0007323
:10113000002BF9D0104B40F205621A600B4A0B4BA2
:101140009B6823F003039360084A084B9B6843F0B5
:101150000203936000BF054B9B6803F00C03082B50
:10116000F9D10C37BD465DF8047B7047003802406A
:101170000070004019544007003C024080B485B024
:1011800000AF78600023FB730023BB730F237B73D6
:101190007B68DB78002B38D0264BDB68DB4303F41D
:1011A000E0631B0AFB73FB7BC3F10403BB737A7B15
:1011B000FB7B42FA03F37B737B685B781A46BB7B4D
:1011C00002FA03F3FB737B689A787B7B1340DAB2F5
:1011D000FB7B1343FB73FB7B1B01FB73164A7B6892
:1011E0001B781344FA7B83F80023134A7B681B782F
:1011F0005B09DBB218467B681B7803F01F030121F3
:1012000001FA03F342F820300FE00B497B681B78AA
:101210005B09DBB218467B681B7803F01F030122D1
:101220009A4000F1200341F823201437BD465DF8B1
:10123000047B704700ED00E000E100E080B485B081
:1012400000AF786039600023FB817B681B88FB81DD
:101250007B68284A934213D07B68274A93420FD079
:101260007B68B3F1804F0BD07B68244A934207D050
:101270007B68234A934203D07B68224A934208D179
:10128000FB8923F07003FB813B685A88FB89134379
:10129000FB817B681C4A93420CD07B681B4A9342BB
:1012A00008D0FB8923F44073FB813B681A89FB89D2
:1012B0001343FB817B68FA891A803B685A687B6814
:1012C000DA623B681A887B681A857B68094A934210
:1012D00003D07B68084A934204D13B689B7A9AB258
:1012E0007B681A867B6801229A821437BD465DF8B6
:1012F000047B7047000001400004014000040040EE
:1013000000080040000C00400010004000140040A5
:1013100080B483B000AF78600B46FB70FB78002B85
:1013200008D07B681B889BB243F001039AB27B68AC
:101330001A8007E07B681B889BB223F001039AB2F6
:101340007B681A800C37BD465DF8047B704700BF90
:1013500080B485B000AF7860396000237B810023C2
:10136000FB810023BB817B681B8C9BB223F00103B4
:101370009AB27B681A847B681B8CFB817B689B8894
:10138000BB817B681B8B7B817B8923F070037B8116
:101390007B8923F003037B813B681A887B89134395
:1013A0007B81FB8923F00203FB813B689A89FB89DF
:1013B0001343FB813B685A88FB891343FB817B689D
:1013C0001E4A934203D07B681D4A934223D1FB8976
:1013D00023F00803FB813B68DA89FB891343FB8117
:1013E000FB8923F00403FB813B689A88FB89134344
:1013F000FB81BB8923F48073BB81BB8923F4007319
:10140000BB813B681A8ABB891343BB813B685A8AFC
:10141000BB891343BB817B68BA899A807B687A89D0
:101420001A833B689A687B685A637B68FA891A84D6
:101430001437BD465DF8047B704700BF00000140D3
:101440000004014080B485B000AF786039600023AB
:101450007B810023FB810023BB817B681B8C9BB2BB
:1014600023F010039AB27B681A847B681B8CFB8183
:101470007B689B88BB817B681B8B7B817B8923F48A
:10148000E0437B817B8923F440737B813B681B882D
:101490001B029AB27B8913437B81FB8923F02003D3
:1014A000FB813B689B891B019AB2FB891343FB813B
:1014B0003B685B881B019AB2FB891343FB817B6805
:1014C000224A934203D07B68214A93422BD1FB8965
:1014D00023F08003FB813B68DB891B019AB2FB8907
:1014E0001343FB81FB8923F04003FB813B689B880E
:1014F0001B019AB2FB891343FB81BB8923F48063F0
:10150000BB81BB8923F40063BB813B681B8A9B00C2
:101510009AB2BB891343BB813B685B8A9B009AB23A
:10152000BB891343BB817B68BA899A807B687A89BF
:101530001A833B689A687B689A637B68FA891A8485
:101540001437BD465DF8047B704700BF00000140C2
:101550000004014080B485B000AF78600B467B800A
:101560000023FB817B681B8BFB81FB8923F0080335
:10157000FB81FA897B881343FB817B68FA891A8394
:101580001437BD465DF8047B704700BF80B485B05A
:1015900000AF78600B467B800023FB817B681B8B50
:1015A000FB81FB8923F40063FB817B881B029AB2D9
:1015B000FB891343FB817B68FA891A831437BD4684
:1015C0005DF8047B704700BF80B483B000AF7860E3
:1015D0000B467B8013467B707B78002B08D07B68A2
:1015E0009B899AB27B8813439AB27B689A8109E0FF
:1015F0007B689B899AB27B88DB439BB213409AB28B
:101600007B689A810C37BD465DF8047B704700BF4C
:1016100080B485B000AF78600B467B800023FB73FD
:101620000023BB8100237B817B681B8A9AB27B8865
:101630001340BB817B689B899AB27B8813407B8176
:10164000BB89002B05D07B89002B02D00123FB73C3
:1016500001E00023FB73FB7B18461437BD465DF8A1
:10166000047B704780B483B000AF78600B467B800A
:101670007B88DB439AB27B681A820C37BD465DF8E3
:10168000047B704781F0004102E000BF83F000431B
:1016900030B54FEA41044FEA430594EA050F08BF0D
:1016A00090EA020F1FBF54EA000C55EA020C7FEAD1
:1016B000645C7FEA655C00F0E2804FEA5454D4EB4E
:1016C0005555B8BF6D420CDD2C4480EA020281EA18
:1016D000030382EA000083EA010180EA020281EA50
:1016E0000303362D88BF30BD11F0004F4FEA0131A2
:1016F0004FF4801C4CEA113102D0404261EB4101B1
:1017000013F0004F4FEA03334CEA133302D0524236
:1017100063EB430394EA050F00F0A780A4F10104F2
:10172000D5F1200E0DDB02FA0EFC22FA05F280182C
:1017300041F1000103FA0EF2801843FA05F3594112
:101740000EE0A5F120050EF1200E012A03FA0EFC91
:1017500028BF4CF0020C43FA05F3C01851EBE371BB
:1017600001F0004507D54FF0000EDCF1000C7EEBD8
:1017700000006EEB0101B1F5801F1BD3B1F5001F16
:101780000CD349085FEA30004FEA3C0C04F1010435
:101790004FEA445212F5800F80F09A80BCF1004F5E
:1017A00008BF5FEA500C50F1000041EB045141EAE0
:1017B000050130BD5FEA4C0C404141EB010111F4E1
:1017C000801FA4F10104E9D191F0000F04BF01468C
:1017D0000020B1FA81F308BF2033A3F10B03B3F16A
:1017E00020020CDA0C3208DD02F1140CC2F10C02FA
:1017F00001FA0CF021FA02F10CE002F11402D8BF58
:10180000C2F1200C01FA02F120FA0CFCDCBF41EA23
:101810000C019040E41AA2BF01EB0451294330BDF2
:101820006FEA04041F3C1CDA0C340EDC04F11404CF
:10183000C4F1200220FA04F001FA02F340EA0300A6
:1018400021FA04F345EA030130BDC4F10C04C4F1EC
:10185000200220FA02F001FA04F340EA03002946CC
:1018600030BD21FA04F0294630BD94F0000F83F416
:10187000801306BF81F480110134013D4EE77FEAF9
:10188000645C18BF7FEA655C29D094EA050F08BF45
:1018900090EA020F05D054EA000C04BF1946104626
:1018A00030BD91EA030F1EBF0021002030BD5FEA6A
:1018B000545C05D14000494128BF41F0004130BD92
:1018C00014F580043CBF01F5801130BD01F00045E6
:1018D00045F0FE4141F470014FF0000030BD7FEA59
:1018E000645C1ABF194610467FEA655C1CBF0B4654
:1018F000024650EA013406BF52EA033591EA030F6B
:1019000041F4002130BD00BF90F0000F04BF002162
:10191000704730B54FF4806404F132044FF0000595
:101920004FF0000150E700BF90F0000F04BF00210E
:10193000704730B54FF4806404F1320410F0004574
:1019400048BF40424FF000013EE700BF42004FEA6F
:10195000E2014FEA31014FEA02701FBF12F07F43EC
:1019600093F07F4F81F06051704792F0000F14BFE9
:1019700093F07F4F704730B54FF4607401F000452D
:1019800021F0004120E700BF50EA010208BF704784
:1019900030B54FF000050AE050EA010208BF704779
:1019A00030B511F0004502D5404261EB41014FF4E2
:1019B000806404F132045FEA915C3FF4DCAE4FF0E6
:1019C00003025FEADC0C18BF03325FEADC0C18BFCD
:1019D000033202EBDC02C2F1200300FA03FC20FA1E
:1019E00002F001FA03FE40EA0E0021FA02F114446B
:1019F000C1E600BF70B54FF0FF0C4CF4E06C1CEA80
:101A000011541DBF1CEA135594EA0C0F95EA0C0FF4
:101A100000F0DEF82C4481EA030621EA4C5123EA67
:101A20004C5350EA013518BF52EA033541F4801196
:101A300043F4801338D0A0FB02CE4FF00005E1FB49
:101A400002E506F00042E0FB03E54FF00006E1FB93
:101A500003569CF0000F18BF4EF0010EA4F1FF04D6
:101A6000B6F5007F64F5407404D25FEA4E0E6D4116
:101A700046EB060642EAC62141EA55514FEAC52027
:101A800040EA5E504FEACE2EB4F1FD0C88BFBCF5A3
:101A9000E06F1ED8BEF1004F08BF5FEA500E50F154
:101AA000000041EB045170BD06F0004646EA01011A
:101AB00040EA020081EA0301B4EB5C04C2BFD4EB4C
:101AC0000C0541EA045170BD41F480114FF0000E45
:101AD000013C00F3AB8014F1360FDEBF002001F0B3
:101AE000004170BDC4F10004203C35DA0C341BDC2D
:101AF00004F11404C4F1200500FA05F320FA04F0FF
:101B000001FA05F240EA020001F0004221F0004132
:101B100010EBD37021FA04F642EB06015EEA430EA5
:101B200008BF20EAD37070BDC4F10C04C4F12005D5
:101B300000FA04F320FA05F001FA04F240EA020088
:101B400001F0004110EBD37041F100015EEA430E59
:101B500008BF20EAD37070BDC4F1200500FA05F279
:101B60004EEA020E20FA04F301FA05F243EA0203F8
:101B700021FA04F001F0004121FA04F220EA020007
:101B800000EBD3705EEA430E08BF20EAD37070BD4D
:101B900094F0000F0FD101F00046400041EB01012D
:101BA00011F4801F08BF013CF7D041EA060195F00F
:101BB000000F18BF704703F00046520043EB0303C9
:101BC00013F4801F08BF013DF7D043EA06037047B6
:101BD00094EA0C0F0CEA135518BF95EA0C0F0CD0C1
:101BE00050EA410618BF52EA4306D1D181EA030107
:101BF00001F000414FF0000070BD50EA410606BF01
:101C00001046194652EA430619D094EA0C0F02D145
:101C100050EA013613D195EA0C0F05D152EA03368A
:101C20001CBF104619460AD181EA030101F00041A8
:101C300041F0FE4141F470014FF0000070BD41F0F1
:101C4000FE4141F4780170BD70B54FF0FF0C4CF4CB
:101C5000E06C1CEA11541DBF1CEA135594EA0C0FEA
:101C600095EA0C0F00F0A7F8A4EB050481EA030E37
:101C700052EA03354FEA013100F088804FEA03331E
:101C80004FF0805545EA131343EA12634FEA0222EC
:101C900045EA111545EA10654FEA00260EF00041AD
:101CA0009D4208BF964244F1FD0404F5407402D2FF
:101CB0005B084FEA3202B61A65EB03055B084FEA90
:101CC00032024FF480104FF4002CB6EB020E75EB8D
:101CD000030E22BFB61A754640EA0C005B084FEAB5
:101CE0003202B6EB020E75EB030E22BFB61A754632
:101CF00040EA5C005B084FEA3202B6EB020E75EB7D
:101D0000030E22BFB61A754640EA9C005B084FEAF4
:101D10003202B6EB020E75EB030E22BFB61A754601
:101D200040EADC0055EA060E18D04FEA051545EAF0
:101D300016754FEA06164FEAC30343EA52734FEA99
:101D4000C2025FEA1C1CC0D111F4801F0BD141EA12
:101D500000014FF000004FF0004CB6E711F4801F77
:101D600004BF01430020B4F1FD0C88BFBCF5E06F57
:101D70003FF6AFAEB5EB030C04BFB6EB020C5FEA67
:101D8000500C50F1000041EB045170BD0EF0004EBC
:101D90004EEA113114EB5C04C2BFD4EB0C0541EAEE
:101DA000045170BD41F480114FF0000E013C90E6EB
:101DB00045EA060E8DE60CEA135594EA0C0F08BFAF
:101DC00095EA0C0F3FF43BAF94EA0C0F0AD150EAAE
:101DD00001347FF434AF95EA0C0F7FF425AF104641
:101DE00019462CE795EA0C0F06D152EA03353FF469
:101DF000FDAE1046194622E750EA410618BF52EAE6
:101E000043067FF4C5AE50EA41047FF40DAF52EAB9
:101E100043057FF4EBAE12E74FEA4102B2F1E04333
:101E200024BFB3F5001CDCF1FE5C0DD901F0004CC1
:101E30004FEAC0024CEA5070B2F1004F40EB830011
:101E400008BF20F00100704711F0804F21D113F13D
:101E50003872BCBF01F00040704741F480114FEA76
:101E60005252C2F11802C2F1200C10FA0CF320FAFF
:101E700002F018BF40F001004FEAC1234FEAD3231C
:101E800003FA0CFC40EA0C0023FA02F34FEA430386
:101E9000CCE77FEA625307D150EA01331EBF4FF00F
:101EA000FE4040F44000704701F0004040F0FE402A
:101EB00040F40000704700BF80F0004002E000BF27
:101EC00081F0004142001FBF5FEA410392EA030F25
:101ED0007FEA226C7FEA236C6AD04FEA1262D2EB6F
:101EE0001363C1BFD218414048404140B8BF5B4274
:101EF000192B88BF704710F0004F40F4000020F00D
:101F00007F4018BF404211F0004F41F4000121F022
:101F10007F4118BF494292EA030F3FD0A2F101026C
:101F200041FA03FC10EB0C00C3F1200301FA03F1AA
:101F300000F0004302D5494260EB4000B0F5000FCD
:101F400013D3B0F1807F06D340084FEA310102F18C
:101F50000102FE2A51D2B1F1004F40EBC25008BF3E
:101F600020F0010040EA03007047490040EB000008
:101F700010F4000FA2F10102EDD1B0FA80FCACF137
:101F8000080CB2EB0C0200FA0CF0AABF00EBC25036
:101F900052421843BCBFD0401843704792F0000F24
:101FA00081F4000106BF80F400000132013BB5E777
:101FB0004FEA41037FEA226C18BF7FEA236C21D0ED
:101FC00092EA030F04D092F0000F08BF0846704752
:101FD00090EA010F1CBF0020704712F07F4F04D120
:101FE000400028BF40F00040704712F100723CBF33
:101FF00000F50000704700F0004343F0FE4040F45D
:10200000000070477FEA226216BF08467FEA23631A
:102010000146420206BF5FEA412390EA010F40F405
:10202000800070474FF0000304E000BF10F0004351
:1020300048BF40425FEA000C08BF704743F0964338
:1020400001464FF000001CE050EA010208BF704753
:102050004FF000030AE000BF50EA010208BF7047DA
:1020600011F0004302D5404261EB41015FEA010CEF
:1020700002BF84460146002043F0B64308BFA3F1E7
:102080008053A3F50003BCFA8CF2083AA3EBC253C9
:1020900010DB01FA02FC634400FA02FCC2F12002E8
:1020A000BCF1004F20FA02F243EB020008BF20F01F
:1020B0000100704702F1200201FA02FCC2F1200285
:1020C00050EA4C0021FA02F243EB020008BF20EA7A
:1020D000DC7070474FF0FF0C1CEAD0521EBF1CEAA8
:1020E000D15392EA0C0F93EA0C0F6FD01A4480EA96
:1020F000010C400218BF5FEA41211ED04FF000637F
:1021000043EA501043EA5111A0FB01310CF00040AA
:10211000B1F5000F3EBF490041EAD3715B0040EAD0
:10212000010062F17F02FD2A1DD8B3F1004F40EBA0
:10213000C25008BF20F00100704790F0000F0CF073
:10214000004C08BF49024CEA502040EA51207F3A37
:10215000C2BFD2F1FF0340EAC250704740F4000012
:102160004FF00003013A5DDC12F1190FDCBF00F003
:1021700000407047C2F10002410021FA02F1C2F1B1
:10218000200200FA02FC5FEA310040F1000053EA4D
:102190004C0308BF20EADC70704792F0000F00F09B
:1021A000004C02BF400010F4000F013AF9D040EAA1
:1021B0000C0093F0000F01F0004C02BF490011F435
:1021C000000F013BF9D041EA0C018FE70CEAD15333
:1021D00092EA0C0F18BF93EA0C0F0AD030F0004CB3
:1021E00018BF31F0004CD8D180EA010000F0004067
:1021F000704790F0000F17BF90F0004F084691F025
:10220000000F91F0004F14D092EA0C0F01D142025E
:102210000FD193EA0C0F03D14B0218BF084608D127
:1022200080EA010000F0004040F0FE4040F4000071
:10223000704740F0FE4040F4400070474FF0FF0C04
:102240001CEAD0521EBF1CEAD15392EA0C0F93EA4B
:102250000C0F69D0A2EB030280EA010C49024FEA9D
:10226000402037D04FF0805343EA111143EA101356
:102270000CF000408B4238BF5B0042F17D024FF40E
:10228000000C8B4224BF5B1A40EA0C00B3EB510FE9
:1022900024BFA3EB510340EA5C00B3EB910F24BFD2
:1022A000A3EB910340EA9C00B3EBD10F24BFA3EB57
:1022B000D10340EADC001B0118BF5FEA1C1CE0D11F
:1022C000FD2A3FF650AF8B4240EBC25008BF20F0D2
:1022D000010070470CF0004C4CEA50207F32C2BF26
:1022E000D2F1FF0340EAC250704740F400004FF0C3
:1022F0000003013A37E792F0000F00F0004C02BFF4
:10230000400010F4000F013AF9D040EA0C0093F0BD
:10231000000F01F0004C02BF490011F4000F013B17
:10232000F9D041EA0C0195E70CEAD15392EA0C0F7F
:1023300008D142027FF47DAF93EA0C0F7FF470AFB7
:10234000084676E793EA0C0F04D14B023FF44CAFFA
:1023500008466EE730F0004C18BF31F0004CCAD18F
:1023600030F000427FF45CAF31F000437FF43CAFCB
:102370005FE700BF4FF0FF3C06E000BF4FF0010CED
:1023800002E000BF4FF0010C4DF804CD4FEA4002CF
:102390004FEA41037FEA226C18BF7FEA236C11D019
:1023A00001B052EA530C18BF90EA010F58BFB2EBCC
:1023B000030088BFC81738BF6FEAE17018BF40F04C
:1023C000010070477FEA226C02D15FEA402C05D100
:1023D0007FEA236CE4D15FEA412CE1D05DF8040B85
:1023E000704700BF844608466146FFE70FB5FFF718
:1023F000C9FF002848BF10F1000F0FBD4DF808EDD0
:10240000FFF7F4FF0CBF012000205DF808FB00BFC0
:102410004DF808EDFFF7EAFF34BF012000205DF81A
:1024200008FB00BF4DF808EDFFF7E0FF94BF012067
:1024300000205DF808FB00BF4DF808EDFFF7D2FF64
:1024400094BF012000205DF808FB00BF4DF808EDA7
:10245000FFF7C8FF34BF012000205DF808FB00BF74
:1024600042000ED2B2F1FE4F0BD34FF09E03B3EBFE
:10247000126209D44FEA002343F0004323FA02F02A
:1024800070474FF00000704712F1610F01D1420216
:1024900002D14FF0FF3070474FF00000704700BF8F
:1024A00000210A2200F08EB82DE9F04F444C8346FB
:1024B0000E46D4F800E000E02646344614F8015BEE
:1024C0000EEB0500407800F0080000F0FF0800283F
:1024D000F2D12D2D4BD02B2D04BF7578B41C1BB120
:1024E000102B60D09A4603E0302D54D00A239A4630
:1024F000B8F1000F14BF4FF000406FF0004000270C
:10250000B0FBFAF9BC460AFB19000CE0303DAB42C7
:1025100019DD7E1C05D0CC4524D821D00AFB0C5CEB
:10252000012714F8015B0EEB0506767816F0040F10
:10253000ECD116F0030606D0012E0CBF3726572625
:10254000AD1BAB42E5DC7B1C16D0C8F100008CEA69
:10255000000040444AB107B1611E1160BDE8F08F30
:102560008542DBDD4FF0FF37DBE7BDE8F08FB41CC1
:1025700075784FF00108B2E7B8F1000F4FF0220371
:1025800014BF4FF000406FF00040CBF80030002A3D
:10259000E2D1BDE8F08F237803F0DF03582B09D098
:1025A00008239A46A4E7302D9CD1207800F0DF0064
:1025B000582897D14FF0100A65785346023497E7B0
:1025C0002800002030B4044C0D46134601462A462C
:1025D000206830BCFFF768BF58040020002020208E
:1025E00020202020202028282828282020202020C3
:1025F0002020202020202020202020202088101093
:1026000010101010101010101010101010040404EE
:1026100004040404040404101010101010104141AC
:10262000414141410101010101010101010101019A
:1026300001010101010101011010101010104242AE
:10264000424242420202020202020202020202026A
:10265000020202020202020210101010200000000A
:10266000000000000000000000000000000000006A
:10267000000000000000000000000000000000005A
:10268000000000000000000000000000000000004A
:10269000000000000000000000000000000000003A
:1026A000000000000000000000000000000000002A
:1026B000000000000000000000000000000000001A
:1026C000000000000000000000000000000000000A
:1026D00000000000000000000000000000000000FA
:0426E00043000000B3
:1026E400CDCC4C3E000000000102030401020304AF
:1026F40006070809007A030A000000000000000031
:102704000102030406070809DC2500080000000094
:10271400000000001C03002084030020EC030020C0
:1027240000000000000000000000000000000000A5
:102734000000000000000000000000000000000095
:1027440000000000E0260008000000000000000077
:102754000000000000000000000000000000000075
:102764000000000000000000000000000000000065
:102774000000000000000000000000000000000055
:102784000000000000000000000000000000000045
:102794000000000000000000000000000000000035
:1027A4000000000000000000000000000000000025
:1027B4000000000000000000010000000000000014
:1027C4000E33CDAB34126DE6ECDE05000B000000D9
:1027D40000000000000000000000000000000000F5
:1027E40000000000000000000000000000000000E5
:1027F40000000000000000000000000000000000D5
:1028040000000000000000000000000000000000C4
:0C2B340000000000000000003000002045
:0400000508000000EF
:00000001FF
